:020000040800F2
:10000000E8040020850E00081308000817080008FF
:1000100000000000000000000000000000000000E0
:100020000000000000000000000000001B080008A5
:1000300000000000000000001D0800081F08000864
:10004000FB070008000000008B080008D30D000823
:10005000470E0008530E0008A50E0008A70E000862
:1000600000000000A90E0008AB0E0008AD0E00084D
:10007000AF0E0008B10E0008B30E0008000000002B
:10008000B50E00080000000000000000B70E0008D8
:1000900000000000B90E0008BB0E0008BD0E0008ED
:1000A00000000000BF0E000800000000C10E0008A4
:1000B000F0B5020052B2002A1CD403229F4B040068
:1000C00064B2A40804256C431C59FF2516000640A1
:1000D00008277E43B540AC438D01EDB202400826AF
:1000E000724395402543020052B2920804246243B1
:1000F0009D5022E00F24924A032305006DB2254053
:10010000083DAD0804267543060076B23440083C2D
:10011000A408042674431659FF27BC461C0004405B
:1001200008277C436746A740BE438C01E4B20340E6
:1001300008277B439C4034435451F0BD10B5040064
:10014000601E80214904884201D301200EE0601E18
:100150007C49086003210020C043FFF7A9FF00206D
:1001600079490860072079490860002010BD784867
:10017000016801220A43026070477548016808005F
:100180008007C00F704772490A68F8239A43C3007A
:1001900013430B6070476F490A6803239A43024375
:1001A0000A6070476B4801680C2008407047694935
:1001B0000A68F0239A4302430A60704765490A6857
:1001C000954B134003430B607047614801688022E0
:1001D00052040A43026070475D48016808008001CC
:1001E000C00F704710B45B4A13688C4C1C408023CE
:1001F0005B02034023430B431360894A13680F24B7
:10020000A3430407240F1C43146010BC704781B043
:1002100084490A6802430A60096801400091009914
:1002200001B0704781B099490A6802430A600968C1
:1002300001400091009901B0704795490A68012377
:100240009A4302430A607047914801680800C0075A
:10025000C00F704700B58F480178491C01700178C4
:10026000032901DB0021017000BD10B58949097B1C
:10027000027F002A03D0022A34D027D34CE002792F
:10028000002A0FD082684369D218826002698368AD
:100290009A421AD282684369D21A82600279D343A1
:1002A000037112E08268C3689A4203D3826843698B
:1002B000D21A82608268C3689A4206D20279D34316
:1002C000037182684369D218826025E082680369FD
:1002D0009A4202D3C268826003E082684369D218FE
:1002E000826019E00279002A11D0002202716A4A64
:1002F000136844691B19136003691468A34201D28F
:10030000C3681360836812689A18826004E00279F7
:10031000D34303710022826010BD38B5050000246C
:10032000002D05D05D48290000F0C4F84008040005
:10033000200000F006FA31BD0000000000E400E0FB
:100340001CED00E014E000E018E000E010E000E048
:100350000010024004100240F8B50120FFF762FFD0
:1003600080204005FFF753FF03210020C043FFF723
:100370009FFE00F059F84A48FFF7E0FE00F01AFA35
:1003800000F073F9474C434D4748297820225143E8
:100390004018206000F04EFA6860FA27BF006868D5
:1003A0002168096879434018A86000F043FA3F4E7D
:1003B000216889694018306000F03CFAA9688142E0
:1003C00017D2FFF747FF38482978202251434018B9
:1003D00020602068FFF749FF20688068FFF79DFFD5
:1003E00000F028FA68606868216809687943401855
:1003F000A86000F01FFA31688142DDD22068FFF763
:1004000034FF20688068FFF788FF00F013FA216846
:10041000896940183060CFE7FFF8FFFFFFFFC2FF98
:100420002C1002401C10024010B50120FFF705FF00
:10043000FFF70AFF0128FBD1FFF799FEFFF79DFEAA
:100440000128FBD11020FFF79EFEA0218903002088
:10045000FFF7C8FEFFF7B9FEFFF7BEFE0128FBD18C
:100460000020FFF7A4FE0020FFF7A8FE0220FFF700
:1004700092FEFFF797FE0828FBD10D4C200000F0FC
:10048000F0F9200000F0F5F910BD0000181002404E
:1004900000200240CC0000200000002040420F005D
:1004A00080BB0000E000002004000020DC000020F1
:1004B000006CDC020022030A8B420BD203098B4240
:1004C00019D243088B422ED2411A00D20146524122
:1004D00010467047FF2209023FD012068B4205D317
:1004E000121209028B4201D31212090203098B4234
:1004F00019D300E0090AC3098B4201D3CB01C01A0A
:10050000524183098B4201D38B01C01A52414309E6
:100510008B4201D34B01C01A524103098B4201D3D4
:100520000B01C01A5241C3088B4201D3CB00C01A41
:10053000524183088B4201D38B00C01A52414308B9
:100540008B4201D34B00C01A5241884200D3401A5B
:100550005241CFD201461046704708B500F094F9D9
:1005600008BD30B501684118446862088A1883687C
:10057000E40704D54C461B1901E0641C09D19142E3
:1005800003D00C7864B2491C01E00C3030BD0D780A
:10059000491C1D705B1C002CEFD4641EF7D5EEE7E0
:1005A00081B072490A6802430A60096801400091FB
:1005B000009901B0704781B06D490A6802430A6032
:1005C000096801400091009901B07047016801225B
:1005D0000A4302607047016801229143016070473D
:1005E000016880220A4302607047F0B5012901D1F9
:1005F000002218E0042901D1012214E0102901D1C0
:10060000022210E0402901D103220CE08022520096
:10061000914201D1042206E08022D200914201D110
:10062000052200E0062203001833524C1500EDB2FB
:10063000645D1B191D6804244F4E1700FFB2F65D60
:10064000B440A5431D60F0BD426870239A430A433D
:100650004260704781688022914381607047416C9D
:10066000802212020A4342647047F8B580273F0196
:100670003800FFF7A0FF30264049300008800024F2
:100680004C600A208860CC600C613D4D280000F071
:1006900010F92800FFF7A4FF3A4A166001265660B9
:1006A00096600520D060146154619461D46180210A
:1006B0004900280000F038F9802149002800FFF7A0
:1006C00094FF00212800FFF7BFFF2800FFF7C2FFBB
:1006D0002D490F608027FF004F608C600E738020D3
:1006E0004001C8818020800108618020C0014861EC
:1006F000280000F04DF92800FFF768FF2800FFF7F9
:10070000AEFF8020C002FFF74BFF80208002FFF782
:1007100047FF1E4D02262E606E60AC60EC602C61BF
:100720006E6129001A4800F0C8FA2F606E60AC6054
:10073000EC602C616E6129009020C00500F0BDFACC
:10074000F1BD38B504000E4D2800FFF744FF0B49FA
:100750008C60280000F0ADF8002C05D02800FFF7D1
:1007600035FF2800FFF77BFF31BD00001410024069
:1007700018100240940E00089C0E0008B8000020DB
:10078000002C01406800002088000020A00000200C
:100790000004004881B005490A6802430A600968FC
:1007A00001400091009901B0704700001410024010
:1007B0008162704710B586B018220021684600F0AB
:1007C000B9FA80208002FFF7E5FF8020C002FFF722
:1007D000E1FF9024E40520212000FFF7E9FF20201D
:1007E000009001200190002002900390049069463F
:1007F000200000F062FA06B010BDFEE710B44269B6
:100800000B0013401B040C0094431C43846110BC78
:10081000704700B5FEE700B5FEE77047704780B54A
:1008200006480168491C016020219020C005FFF79F
:10083000E5FF01BD0148006870470000E4000020AA
:1008400030B504000D0020002900FFF733FE401EE4
:100850000949086000200949086005200849086026
:1008600030BD10B50400FA2189002000FFF7E8FF31
:1008700010BD04490860704714E000E018E000E093
:1008800010E000E0640000207047FEE781627047DE
:10089000C16270470163704741637047816370476D
:1008A000C163704701647047416901220A43426194
:1008B0007047F8B504000E002568314FBC4202D0E5
:1008C0003048844204D17020854328007568054370
:1008D000BC420BD02B48844208D02B48844205D020
:1008E0002A48844202D03C48844203D15B482840D5
:1008F000F56805432560B1682000FFF7C9FF31881E
:100900002000FFF7C3FFBC4205D02048844202D03C
:100910003148844203D131692000FFF7BBFF20003A
:10092000FFF7C2FF0020F2BDF8B504000E0017006B
:1009300001253000401E08D00F380CD0F03810D000
:10094000F0210901401A12D017E03900200000F010
:1009500045F8050011E03900200000F081F805009D
:100960000BE03900200000F0BEF8050005E039007A
:10097000200000F0F9F80500FFE72800C0B2F2BD42
:10098000002C0140000400400020004000440140D1
:1009900010B402000020FF2398430B7B03432F4C2D
:1009A0001C40886820438A4B034048681843894BA1
:1009B000034008681843884B0340C8890343874CA9
:1009C0001C4008692043864C04404B692343536410
:1009D000002010BC7047000000480140F8B504003A
:1009E0000F00206A012188432062206A6668A1699D
:1009F00003229143702291433A680A4300920221F4
:100A0000884339690143012081437D680D4375485E
:100A1000844205D07448844202D07448844212D182
:100A20000820854378698000284304218843B968F9
:100A30008D0005436E493140B86908436D49014056
:100A4000F86946000E4366600098A061F9682000CE
:100A5000FFF722FF25620020F2BD0000FFFCFFFF30
:100A6000F8B504000F001020C043216A0140216244
:100A7000216A6668A269604B1340604A1A403B686D
:100A80001B0213430093202291433A6912010A4347
:100A9000104079680D0105435248844205D0524800
:100AA000844202D05148844213D180208543786922
:100AB0008001284340218843B9688D01054344499A
:100AC0003140B8698000084342490140F869C600D6
:100AD0000E4366600098A061F9682000FFF7DEFE13
:100AE00025620020F2BDF8B504000F004048216ADD
:100AF00001402162216A6668E26903239A437023F8
:100B00009A433B68134300933A4A0A403969090201
:100B10001143084079680D0205433248844205D0EC
:100B20003148844202D03148844213D129492940B6
:100B300078698002084326490140B86885020D4360
:100B400025493140B8690001084324490140F8694A
:100B500046010E4366600098E061F9682000FFF7E7
:100B60009FFE25620020F2BDF8B504000E001A4871
:100B7000216A01402162216A6568E2691E4B1340C7
:100B80001E4A1A4033681B0213430093134A0A405B
:100B9000316909031143084071680F030743114885
:100BA000844205D01048844202D01048844204D1C7
:100BB0000B482840B1698D01054365600098E061EC
:100BC000F1682000FFF76EFE27620020F2BD0000F2
:100BD000FFFBFFFFFFF7FFFFFFEFFFFFFFDFFFFF61
:100BE000FFBFFFFF002C01400044014000480140CE
:100BF000FFFEFFFFFFFDFFFFFFFCFFFFFF8FFFFF7B
:100C000030B403680C004C4303256C43A3430C0031
:100C10004C4354431C43046030BC704710B44368D9
:100C20008B430C0054431C43446010BC704730B4E9
:100C300083680C004C4303256C43A3430C004C43D6
:100C400054431C43846030BC704730B4C3680C000C
:100C50004C4303256C43A3430C004C4354431C43B7
:100C6000C46030BC704730B4036A0C004C434C4342
:100C70004C430F256C43A3430C004C434C434C4363
:100C800054431C43046230BC704730B4446A0B0ABE
:100C90000D0A6B430D0A6B430D0A6B430F256B4323
:100CA0009C430B0A0D0A6B430D0A6B430D0A6B4301
:100CB00053432343436230BC7047F8B506000C0031
:100CC00000252068E840002832D020680121A94092
:100CD00001400F00002F29D06068012802D0606811
:100CE000022809D1A26839003000FFF7A0FFE268AE
:100CF00021683000FFF792FF226939003000FFF7CA
:100D0000A4FF606802280CD1FF2F05D86269390062
:100D10003000FFF7A8FF04E0626939003000FFF7F8
:100D2000B4FF626839003000FFF76AFF6D1CC8E746
:100D30000020F2BD10B504000800110002002000E0
:100D400000F002F8200010BD1206130A1A43130C1B
:100D50001A4300BF094205D0830705D00270401C2A
:100D6000491EF9D1704700001300103906D330B482
:100D70001400150010393CC0FCD230BC490700D328
:100D80000CC000D504C0890002D30280801C002959
:100D900000D50270704770B40123002413E001688D
:100DA000001D194202D04D466918491E0C60091DEC
:100DB000121F042AFAD20D00960701D50C80AD1C33
:100DC0001A4000D02C700268001D002AE7D170BCC8
:100DD0007047FEE710B5074979441831064C7C444A
:100DE000163404E0081D0A68891888470100A142EA
:100DF000F8D110BD08000000240000009BFFFFFF99
:100E000080000000680000200000000057F7FFFF8E
:100E1000B6000000B20000000000002000F00DF855
:100E2000002801D0FFF7D6FF00BF00BF002000BFA1
:100E300000BFFFF791FA00F002F80120704780B57B
:100E400000F002F801BDFEE70746384600F002F860
:100E5000FBE7FEE780B500BF00BF024A1100182083
:100E6000ABBEFBE7260002000548014603B4684616
:100E700080F3098800BF00BF00BF00BFFFF7CEFFAF
:100E8000A5EDF5FE0148804701480047C50E000862
:100E9000690E0008000000000404040000000800BF
:100EA00000000800FEE7FEE7FEE7FEE7FEE7FEE7DC
:100EB000FEE7FEE7FEE7FEE7FEE7FEE7FEE7FEE70A
:100EC000FEE70000704704204E00003CF9001420AB
:100ED0004E0000204E000060EA0000D007000088AD
:100EE00013000002FD00003CF90014204E00002019
:100EF0004E000060EA0000D00700008813000001E7
:100F0000FD00003CF90011204E0000204E00006062
:0F0F1000EA0000D00700008813F90002127A00EF
:0400000508000E6978
:00000001FF
