:020000040800F2
:10000000A804002041170008E1150008E5150008C4
:1000100000000000000000000000000000000000E0
:10002000000000000000000000000000E9150008CA
:100030000000000000000000EB150008ED150008AE
:100040003F080008000000005F090008C710000812
:10005000FF140008D3160008DF1600085D1700081B
:10006000000000005F170008611700086317000810
:1000700065170008671700086917000800000000EE
:10008000F51500080000000000000000FF15000842
:10009000000000006B1700086D1700086F170008BC
:1000A000000000007117000800000000731700082E
:1000B000F8B584B00400002C01D101204AE2207878
:1000C000C00766D50C20B4490A680240042A09D04A
:1000D0000A68104008280ED18020400209680140BB
:1000E000814208D1AD480068800352D5606800287D
:1000F0004FD101202EE26068012806D1A74801688F
:10010000802252020A43026024E06068002809D17C
:10011000A2480168A24A0A4002600168A14A0A4056
:10012000026017E0606805280BD19C4801688022B6
:10013000D2020A4302600168802252020A4302602E
:1001400008E096480168964A0A4002600168954AAC
:100150000A400260606800280DD000F0EBFA05004C
:100160008E480068800314D400F0E4FA401B652830
:10017000F6D30320EEE100F0DDFA050087480068C1
:10018000800306D500F0D6FA401B6528F6D303207D
:10019000E0E102262068304000284FD00C207E4944
:1001A0000A680240002A06D00A681040082814D1C4
:1001B0000868C00311D4794801683140002904D08F
:1001C000E168012901D00120C4E10168F8229143CE
:1001D0002269D2000A43026030E0E06800281AD0A9
:1001E0006E4F386801210143396000F0A3FA050021
:1001F00038683040002806D100F09CFA401B0328E4
:10020000F6D30320A6E13868F82188432169C900A4
:100210000143396012E0614F38680121884338603A
:1002200000F088FA050038683040002806D000F059
:1002300081FA401B0328F6D303208BE120780007C6
:1002400028D5E069002812D0C34F38680121014346
:10025000396000F06FFA050038683040002819D185
:1002600000F068FA401B0328F6D3032072E1BA4F6E
:10027000386801218843386000F05CFA050038686E
:100280003040002806D000F055FA401B0328F6D372
:1002900003205FE1042720683840002800D18CE06B
:1002A00000206946087080204005AC49096801407B
:1002B00000290AD1A9490A6802430A60096808406E
:1002C00003900398012069460870A5480068C0059E
:1002D00014D4A3480068802149000143A04801606C
:1002E00000F028FA05009E480068C00506D400F01A
:1002F00021FA401B6528F6D303202BE1A0680128D2
:1003000005D19848016801220A43026021E0A068F3
:10031000002809D1934801680122914301600168D6
:1003200004229143016014E0A068052808D18D489B
:10033000016839430160016801220A43026008E054
:1003400088480168012291430160016804229143B9
:100350000160A06800280FD000F0ECF9050081488A
:100360000068304000281FD100F0E4F9401B7E49AE
:100370008842F4D30320EDE000F0DCF90500794871
:100380000068304000280FD000F0D4F9401B7649B7
:100390008842F4D30320DDE0041002400010024044
:1003A000FFFFFEFFFFFFFBFF68460078012804D136
:1003B0006A4801686D4A0A4002602078C00650D53C
:1003C0006069012822D1B44800680743B248076039
:1003D000B148006801210143AF48016000F0AAF96B
:1003E0000500AD4800683040002806D100F0A2F9B1
:1003F000401B0328F5D30320ACE0A7480168F8228E
:100400009143A269D2000A4302602AE00421C94351
:10041000606988420BD1A048026811400160016800
:10042000F8229143A269D2000A43026019E09A4877
:10043000006807439848076097480068012188438F
:100440009549086000F076F905009348006830404F
:10045000002806D000F06EF9401B0328F5D30320D6
:1004600078E0206A002874D08C4800680C21014094
:1004700008294DD0206A022838D1894F3868894927
:100480000140396000F056F900908026B6043868C3
:100490003040002807D000F04DF90099401A032899
:1004A000F3D3032056E0984801680F229143E26A93
:1004B0000A430260794801687B4A0A40A16A1143F5
:1004C000626A0A4302603868802149040143396046
:1004D00000F030F9050038683040002839D100F0CC
:1004E00029F9401B0328F6D3032033E06C4E306813
:1004F0006C490140316000F01DF905003068800151
:1005000027D500F017F9401B0328F7D3032021E07B
:10051000206A012801D101201CE060480068019098
:100520007948006802900198802149020840616A78
:1005300088420CD102980007000FE16A884206D178
:100540000198F02189030140A06A814201D0012075
:1005500000E0002005B0F0BD241002401C10024055
:10056000007000402010024089130000FFFFFFEFE1
:10057000F3B581B00400002C01D101208BE00125EE
:10058000624E30682840029988420CD230680121BE
:1005900088430299014331603068284002998842BB
:1005A00001D0012077E002202168014000290FD00E
:1005B0002178490705D539490A68E023DB00134350
:1005C0000B6036490A68F0239A43A36813430B6013
:1005D00021682940002932D06168012905D13048BD
:1005E0000068800311D4012055E06168022905D11B
:1005F0002B480068800108D401204CE02849096894
:100600000840002801D1012045E0244F386803212B
:10061000884361680143396000F08CF800903868C5
:100620000C21014060688000814208D000F082F80F
:100630000099401A36498842F1D303202BE00298F2
:100640003168294088420CD23068012188430299E0
:1006500001433160306805400298854201D0012095
:1006600019E02078400706D50C480168294A0A405D
:10067000E1681143016000F019F82749074A126840
:1006800012091207120F895CC84024490860032030
:1006900000F056F80020FEBD341002400410024065
:1006A00000100240FFFFFFFEFFFFC2FFF8B500246D
:1006B000200000942500260019490F680C213940BC
:1006C000042902D0082902D01BE016481AE00F20A6
:1006D0001549BA0C0240895C0E0014490A4A126896
:1006E0001040085C0090F80306D50E48009900F011
:1006F0004FF87043050002E00D48704305002800E4
:1007000000E00848F2BD00002C100240002002402A
:1007100089130000FFF8FFFF3017000804000020D5
:100720000410024000127A00101700082017000879
:1007300000093D0001480068704700BFA00000208C
:1007400010B50400FA2080000E49097800F020F866
:1007500001000D48006800F01BF800F0EDF80028DB
:1007600001D001200CE0042C09D20022210000203D
:10077000C04300F0D0F805480460002000E00120EC
:1007800010BD00BF0B00002004000020000000206E
:100790000022030A8B420BD203098B4219D2430871
:1007A0008B422ED2411A00D2014652411046704768
:1007B000FF2209023FD012068B4205D31212090212
:1007C0008B4201D31212090203098B4219D300E0B4
:1007D000090AC3098B4201D3CB01C01A52418309D4
:1007E0008B4201D38B01C01A524143098B4201D382
:1007F0004B01C01A524103098B4201D30B01C01AAD
:100800005241C3088B4201D3CB00C01A5241830826
:100810008B4201D38B00C01A524143088B4201D353
:100820004B00C01A5241884200D3401A5241CFD2E5
:1008300001461046704708B500F090F808BDFEE785
:1008400000B5010049B2002905D40121C206D20E2B
:1008500091403C4A116000BDF0B5020052B2002A3E
:100860001CD40322384B040064B2A40804256C4352
:100870001C59FF251600064008277E43B540AC43AF
:100880008D01EDB2024008267243954025430200D7
:1008900052B29208042462439D5022E00F242B4A56
:1008A000032305006DB22540083DAD0804267543BD
:1008B000060076B23440083CA40804267443165956
:1008C000FF27BC461C00044008277C436746A7401E
:1008D000BE438C01E4B2034008277B439C40344371
:1008E0005451F0BD10B50400601E802149048842B7
:1008F00001D301200EE0601E15490860032100208D
:10090000C043FFF7A9FF00201249086007201249E1
:100910000860002010BD70B505000C001600210015
:10092000280040B2FFF798FF70BD10B5040020000A
:1009300040B2FFF785FF10BD10B504002000FFF79F
:10094000D1FF10BD00E100E000E400E01CED00E09C
:1009500014E000E018E000E010E000E07047FEE77F
:1009600010B50400002C01D1012026E03D20205CC0
:10097000002805D100203C216054200000F045FBF8
:1009800002203D216054211D206800F0C7F901209C
:10099000462160543E2160543F2160544021605400
:1009A00041216054422160544321605444216054E9
:1009B000452160543D216054002010BD70B50400F5
:1009C0000D00002D02D13E20205C0BE0042D02D151
:1009D0003F20205C06E0082D02D14020205C01E091
:1009E0004120205C012801D0012052E0002D04D1DB
:1009F00002203E216054C0B211E0042D04D1022037
:100A00003F216054C0B20AE0082D04D102204021E9
:100A10006054C0B203E0022041216054C0B2012200
:100A20002900206800F0A0FA1A482168814207D006
:100A30002168194A914203D02168184A914201D194
:100A4000012100E00021C9B2002906D02168496CCB
:100A5000802212020A4321684A642168814203D03D
:100A600020680F4988420DD1206880684007400FF8
:100A70000600062E0CD02068006801210143206882
:100A8000016005E0206800680121014320680160E1
:100A9000002070BD002C014000440140004801408E
:100AA00000040040F8B504002068C0680090206889
:100AB0000769022637421BD000983040002817D023
:100AC0000220C043216808610120207720688069E6
:100AD0008007800F002803D0200000F0E3FA05E033
:100AE000200000F0E0FA200000F0DEFA002020777D
:100AF00004252F421BD000982840002817D004203E
:100B0000C04321680861267720688069C021890078
:100B10000140002903D0200000F0C4FA05E02000C5
:100B200000F0C1FA200000F0BFFA0020207708266C
:100B300037421AD000983040002816D00820C04311
:100B40002168086125772068C0698007800F002828
:100B500003D0200000F0A6FA05E0200000F0A3FA80
:100B6000200000F0A1FA00202077102007421BD0BF
:100B700000990840002817D01020C0432168086160
:100B800026772068C069C02189000140002903D070
:100B9000200000F087FA05E0200000F084FA200031
:100BA00000F082FA00202077012007420AD0009945
:100BB0000840002806D00120C043216808612000B9
:100BC00000F073FA802007420AD0009908400028FC
:100BD00006D08020C04321680861200000F066FA3A
:100BE000402007420AD000990840002806D0402043
:100BF000C04321680861200000F059FA2020074214
:100C00000AD000990840002806D02020C04321685F
:100C10000861200000F04CFAF1BDF4B504000E00AC
:100C200000252F003C20205C012801D1022071E02A
:100C300001203C2160540099002906D004291BD0D2
:100C4000082932D00C2947D05FE03100206800F03D
:100C5000A2F820688069082101432068816120682A
:100C6000806904218843216888612068806931692E
:100C700001432068816149E03100206800F0C3F839
:100C80002068806980210901014320688161206812
:100C9000806921490140206881612068806931694B
:100CA000090201432068816130E03100206800F0D2
:100CB000E1F82068C069082101432068C16120680B
:100CC000C069042188432168C8612068C06931690E
:100CD00001432068C16119E03100206800F0FFF88D
:100CE0002068C0698021090101432068C161206832
:100CF000C069094901402068C1612068C069316943
:100D0000090201432068C16100E007003C2025542E
:100D10003800C0B2F2BD0000FFFBFFFF10B5036852
:100D2000834A904202D0834CA04204D17024A34352
:100D30001C004B68234390420BD07E4CA04208D04D
:100D40007D4CA04205D07D4CA04202D07C4CA042FC
:100D500003D17C4C1C40CB6823438024A3434C69C3
:100D60001C4304608B68C3620B688362904205D0A9
:100D7000724A904202D0724A904201D10A690263DB
:100D80000122426103691A40002A03D0026901234B
:100D90009A43026110BD70B5056A026A01239A4345
:100DA00002624368846970229443032294430A6870
:100DB00022430224A5438C682C435D4DA84205D0F4
:100DC0005E4EB04202D05E4EB04206D10826B44319
:100DD0002600CC6834430426B443A84205D0574DBE
:100DE000A84202D0564DA84207D1574D1D40594B3D
:100DF0002B404D691D438B692B43436082614D68D5
:100E00004563046270BD70B5036A026A1024A24390
:100E10000262426884694D4D25404A4E2E400C685E
:100E2000240234432025AB438D682D011D43404BE4
:100E3000984207D18026B5432E00CD682D01354359
:100E40004026B543984205D03C4B984202D03C4BDB
:100E5000984209D13E4B13403F4A1A404B699B00D0
:100E600013438A6992001A43426084614B6883632A
:100E7000056270BDF0B5046A026A334B1340036229
:100E80004268C56970239D4303239D430B682B4330
:100E9000304D25408C6824022C43254DA84206D1B4
:100EA0002D4E2640CC6827023743294C3C40A842AF
:100EB00005D0224DA84202D0214DA84209D1274D8C
:100EC0001540274A2A404D692D0115438A691201B0
:100ED0002A434260C3614D68C5630462F0BD70B5CA
:100EE000036A026A1D4C144004624268C469174DCB
:100EF0002540144E2E400C6824023443184D1D40EA
:100F00008B681B032B430A4DA84205D00B4DA8420A
:100F100002D00B4DA84204D1124D15404A699201EE
:100F20002A434260C4614D680564036270BD0000DD
:100F3000002C01400004004000200040004401401B
:100F400000480140FFFCFFFFFFFEFFFFFF8FFFFF98
:100F5000FFFBFFFFFFFDFFFFFFF7FFFFFFEFFFFFBF
:100F6000FFDFFFFFFFBFFFFF70B41F2301240D0051
:100F70001D40AC40056AA5430562056A0E0033407A
:100F800016009E402E43066270BC704778B589B04B
:100F900008220021684600F08CF81C22002102A8DB
:100FA00000F087F83B4C3C4820602F206060002513
:100FB000A5600A20E06025618026A6612000FFF779
:100FC000CFFC002801D000F022F900950196694677
:100FD000200000F01FF9002801D000F018F930209F
:100FE000029004950695002202A92000FFF715FE45
:100FF000002801D000F00BF900212000FFF7DEFCF3
:10100000200000F01AF80AB070BD1CB5040020687A
:101010002149884210D1022020490A6802430A600F
:101020000968084000900098002200211020FFF776
:1010300072FC1020FFF779FC13BD10B586B00400D8
:101040001422002101A800F034F8206812498842D7
:1010500017D18020800212490A6802430A60096899
:10106000084000900098402001900220029000204B
:10107000039004900120059001A99020C00500F084
:10108000FBF806B010BD10B504000248C460FFF7BD
:1010900067FC10BD0C000020000400401C10024042
:1010A0001410024070477047704770477047704790
:1010B000704710B50400080011000200200000F085
:1010C000F7F9200010BDFEE710B53548017800297A
:1010D0001DD0324A33490B781478A34209D3527891
:1010E0000B789A4205D308782F4A1278801A087034
:1010F0002AE00278002A02D10122027001E00022D7
:1011000002700878284A1278801808701CE0234A78
:1011100024490B781478A34209D352780B789A4269
:1011200005D30878204A1278801808700CE00278FD
:10113000002A02D10122027001E000220270087828
:10114000194A1278801A08701648007810BD38B510
:1011500000F0D6F900F02CF800F0E2F9FFF716FFE6
:10116000012202219020C00500F083F90F4CFFF707
:10117000E1FAFA21890040182060FFF7DBFA2168C4
:101180008142FAD22068C8302060FFF79DFF050039
:101190002800C0B2FFF777FFEFE70000080000204B
:1011A000A40000200A000020761700089C00002000
:1011B00038B590B03022002104A8FFF77AFF102242
:1011C00000216846FFF775FF022404940120079070
:1011D000102008900C9400250D95A02080030E90FF
:1011E0000F9504A8FEF764FF002801D000F00FF867
:1011F0000720009001940295039501216846FFF7AE
:10120000B7F9002801D000F002F811B030BD00B5E8
:1012100072B6FEE770B502003C20105C012801D1D7
:10122000022024E001203C23D05402233D24135506
:1012300013685D6813689B687024A5430C682C4391
:1012400015686C6015680A4EB54203D01568094EE2
:10125000B54206D18025AB431D004B682B43156872
:10126000AB603D25505500203C255055002070BDF9
:10127000002C014000040040F1B582B00023086852
:10128000D840002800D1F3E00124086825009D40E3
:10129000054001950198002800D1E7E00325486842
:1012A0002840012803D04868284002281ED102980F
:1012B00086681F00022047432800B8408643CF6855
:1012C000BC46180002277843674687403743029898
:1012D0008760029846682000984086434868000965
:1012E00020409840304302000298426048682840FD
:1012F000032812D00298C6681F0002204743280026
:10130000B84086438F68BC4618000227784367467A
:10131000874037433A000298C26048682840022854
:1013200021D10298DE0804277E438019076A07202E
:1013300000970F26B4461F000740042677436646F1
:10134000BE40009FB743BC460E691F0038400427CB
:101350007843864067463E4332000298DE08042701
:101360007E4380190262029806681F0002204743EC
:101370002800B84086434F682F40BC46180002271B
:1013800078436746874037433A00029802604868CE
:10139000C026B6020640002E68D03C4806682643A8
:1013A00006600068204000900098394E9808042795
:1013B0007843305800900F27BC461F002800384063
:1013C00004277843674687400098B8430090029806
:1013D0009027FF05B84201D1002410E002982D4A61
:1013E00090420CD002982C4A904201D1022406E08F
:1013F00002982A4A904201D12C0000E0052400986E
:101400001A00154004225543AC40044398080422B6
:1014100050433450224A1068019DA8434D68ED02A4
:1014200002D504000198204310601E4C2268019DE3
:10143000AA434D68AD0202D51000019A0243226012
:10144000194C2068019DA8434D68AD0302D50200E8
:10145000019810432060154C2268019DAA434D68F5
:10146000ED0302D51000019A024322605B1C06E7DF
:10147000F7BD00B51300DBB2002B03D00B009BB20D
:10148000836102E00B009BB2836200BD1810024032
:10149000080001400004004800080048000C004813
:1014A000080401400C040140040401400004014010
:1014B0001206130A1A43130C1A4300BF094205D03F
:1014C000830705D00270401C491EF9D17047000007
:1014D0001300103906D330B41400150010393CC085
:1014E000FCD230BC490700D30CC000D504C0890031
:1014F00002D30280801C002900D502707047FEE7ED
:1015000080B50648016810220A4302600320FFF7F5
:1015100017F900F02DF8002002BD00000020024065
:1015200010B586B01422002101A8FFF7C2FD80206B
:1015300080020E490A6802430A6009680840009068
:1015400000989024E405002203212000FFF791FF7A
:10155000032001900120029000200390049001A933
:101560002000FFF789FE06B010BD00BF1410024036
:1015700081B0012009490A6802430A6009680840ED
:10158000009000988020400505490A6802430A60DF
:10159000096808400090009801B070471810024098
:1015A0001C10024070B40123002413E00168001DE8
:1015B000194202D04D466918491E0C60091D121FC0
:1015C000042AFAD20D00960701D50C80AD1C1A40F2
:1015D00000D02C700268001D002AE7D170BC704753
:1015E00000B5FEE700B5FEE77047704780B500F034
:1015F00011F801BD80B50548FFF754FA01BD80B56B
:101600000348FFF74FFAFFF75FFD01BD0C00002014
:101610005400002003480168034A127889180160C9
:10162000704700BFA00000200B00002030B4012252
:101630000EE00368C31844680830144202D04D46D7
:101640002C19641E1D6825601B1D241D091FF9D15E
:101650000168001D0029ECD130BC704710B5074966
:1016600079441831064C7C44163404E0081D0A689D
:10167000891888470100A142F8D110BD0800000078
:101680002800000021FFFFFF9C0000000C0000204C
:101690000000000099FFFFFF0C000000B4000000F4
:1016A000000000200000000000F00DF8002801D02C
:1016B000FFF7D4FF00BF00BF002000BF00BFFFF74F
:1016C00046FD00F002F80120704780B500F002F8F6
:1016D00001BDFEE70746384600F002F8FBE7FEE7EB
:1016E00080B500BF00BF024A11001820ABBEFBE767
:1016F000260002000548014603B4684680F30988C5
:1017000000BF00BF00BF00BFFFF7CEFFA5EDF5FE95
:1017100002030405060708090A0B0C0D0E0F101032
:101720000102030405060708090A0B0C0D0E0F1031
:101730000000000000000000010203040607080981
:10174000014880470148004775170008F516000852
:101750000400000000127A000A640A01FEE7FEE7B6
:10176000FEE7FEE7FEE7FEE7FEE7FEE7FEE7FEE751
:07177000FEE7FEE770470AE7
:04000005080016F5E4
:00000001FF
