:020000040800F2
:10000000600400202111000841110008431100087C
:1000100000000000000000000000000000000000E0
:100020000000000000000000000000004511000872
:1000300000000000000000004711000849110008FE
:100040000307000800000000C30B0008BF0C0008F5
:100050008B0D0008A30F0008CF100008DB1000086C
:10006000000000005111000853110008551100084C
:1000700057110008591100085B110008000000002A
:100080005D11000800000000000000005F11000882
:1000900000000000611100086311000865110008EC
:1000A000000000006711000800000000691100084E
:1000B000FEB5060019D0AD4C3078C00717D58027A3
:1000C000BF0260680C210140042909D060680C213E
:1000D0000140082941D160687908084088423CD134
:1000E0002068074003D07068002800D19BE1307879
:1000F00080071AD5F827FF4360680C21014007D01C
:1001000060680C21014008295AD16068C00357D4A7
:100110002068800703D5F068012800D083E12068BB
:1001200007403069C000384320603078000778D538
:100130000227F0690028606A64D0012101436162EE
:1001400000F040FA0500606A38406AD100F03AFADF
:10015000401B0228F7D90320FEBD73687908012BE4
:1001600009D0B348B34A002B09D0052B07D120682A
:100170008A000243226020680143216005E0216873
:100180000A402260216808402060706800280BD077
:1001900000F018FA050020683840A8D100F012FAE3
:1001A000401B6528F7D3D6E700F00CFA050020685D
:1001B00038409CD000F006FA401B6528F7D3CAE708
:1001C000F068002820680ED001210143216000F072
:1001D000F9F9050020688007A1D400F0F3F9401B6D
:1001E0000228F7D9B7E701218843206000F0EAF937
:1001F00005002068800798D500F0E4F9401B02282C
:10020000F7D9A8E701218843606200F0DBF9050017
:10021000606A384005D000F0D5F9401B0228F7D9B4
:1002200099E704273068384062D000200190B80672
:10023000E169014008D1E1690143E161E1690840F8
:1002400000900098012001907B480068C00512D4FE
:1002500079480068A10D01437748016000F0B2F9C8
:10026000050075480068C00505D400F0ABF9401BD7
:100270006528F6D36FE7B068012808D0002801D1BF
:10028000206A09E00528206A06D138432062206AE6
:1002900001210143216205E0012188432062206A97
:1002A000B8432062A4480090B06800280CD000F049
:1002B00089F90500206A800713D400F083F9401BF8
:1002C00000998842F6D346E700F07CF90500206AE1
:1002D000800706D500F076F9401B00998842F6D3D6
:1002E00039E70198002803D0E06994490140E161B1
:1002F0003078C0061DD57069F825ED43012837D147
:10030000606B07436763606B01210143616300F029
:1003100059F90700606B800705D400F053F9C01B42
:100320000228F7D917E7606B0540B069C000284381
:100330006063306A002878D061680C220A40082A7D
:100340005CD08027BF048D490228206848D1014035
:10035000216000F037F905002068384022D000F015
:1003600031F9401B0228F7D9F5E600BF0010024022
:100370000421C9438842606B02D101406163D2E726
:1003800007436763606B01218843606300F01AF9DB
:100390000500606B8007CCD500F014F9401B0228E3
:1003A000F7D9D8E6E06A0F218843F16A0143E16298
:1003B000606873490140B06A0843716A0143616033
:1003C000206879080143216000F0FCF805002068EE
:1003D00038402AD100F0F6F8401B0228F7D9BAE6D7
:1003E0000140216000F0EEF80500206838401CD084
:1003F00000F0E8F8401B0228F7D9ACE6012812D03B
:100400006068E16A802252020240736A9A420AD10D
:100410000907090FF26A914205D1F02189030140D1
:10042000B06A814201D00120FEBD0020FEBD000067
:10043000FFFFFBFFFFFFFEFF00700040F8B5040068
:1004400060D000914F480068C107C90F00988142F1
:100450000CD24C48016801229143009A0A43026081
:100460000068C107C90F009881424BD12168464DF1
:10047000022001420CD0490704D56968E022D2006D
:100480000A436A606968F0229143A2680A436A607D
:1004900001272168394025D06168012902D12868E7
:1004A000800303E0022903D12868800103D429E0F6
:1004B0002A68104026D0686803229043014369608F
:1004C00000F080F8060068680C2101406068800038
:1004D000814207D000F076F8801B17498842F2D39A
:1004E0000320F2BD2748009902683A4091420BD29E
:1004F0000168B943009A0A43026000680740009807
:10050000874201D00120F2BD2078400705D56868F8
:100510001E490140E0680843686000F011F81C497A
:100520006A681206120F895CC8401A4908600320E5
:1005300000F04EF80020F2BD89130000FFFFFFEF2E
:10054000154B196815480C220A40082A00D070473C
:1005500030B50F2213A48D0C1540645D9B6AC9034E
:1005600007D500BF13A11A40895C00F053F860431F
:1005700030BD20000A49484330BD0000FFFFFFFEA8
:10058000FFFFC2FF0020024000100240FFF8FFFF03
:10059000101100080C0000200410024000127A0024
:1005A00000093D0002030405060708090A0B0C0DAB
:1005B0000E0F10100102030405060708090A0B0CB0
:1005C0000D0E0F1001484068704700BF000000206A
:1005D00038B505000D4CFA208000217800F01AF89B
:1005E00001000B48006800F015F800F06EF80028D4
:1005F0000AD1042D08D2002229000020C04300F0B7
:1006000060F8A560002032BD012032BD000000204E
:100610000C000020094214D088420FD30122030CA1
:1006200001D100041204002300185B418B4200D367
:100630005B1A5241F8D319001000704701000020E6
:10064000704708B500F05CF808BD30B50168411886
:10065000446862088A188368E40704D54C461B196D
:1006600001E0641C09D1914203D00C7864B2491CAA
:1006700001E00C3030BD0D78491C1D705B1C002C56
:10068000EFD4641EF7D5EEE710B5C200182313406F
:10069000FF249C40E2438907090E9940030004D4DB
:1006A00014489B089B00C01806E0134B0007000F7E
:1006B000083880088000181803681A401143016048
:1006C00010BD80B5FFF7E0FF01BD10B5401E8021D1
:1006D0004904884201D3012010BD084C6060032109
:1006E0000020C043FFF7D0FF0020A0600721216059
:1006F00010BD000000E400E01CED00E010E000E0B0
:100700007047FEE710B5040001D1012010BD3D2067
:10071000205C002804D13C216054200000F085FAC0
:10072000FFE702203D216054211D206800F026F9DA
:100730000120462160543E2160543F2160544021F5
:10074000605441216054422160544321605444214B
:100750006054452160543D216054002010BD10B507
:10076000040001D1012010BD3D20205C002804D1EF
:100770003C216054200000F097FAD2E710B5040045
:10078000002901D13E2008E0042901D13F2004E0E6
:10079000082901D1402000E04120205C012801D03F
:1007A000012010BD0220002901D13E2208E00429C9
:1007B00001D13F2204E0082901D1402200E041227A
:1007C000A0540122206800F0EFF9216830488142EE
:1007D00005D0304A914202D02F4A914204D14A6C4E
:1007E00080231B0213434B6422680121824202D002
:1007F0002548824204D190684007400F062804D063
:1008000010460068014310460160002010BD000042
:1008100070B504000D000022206800F0C5F92268C0
:100820001A481E491A4B9A4205D01A4B9A4202D0D6
:10083000194B9A4209D1136A0B4006D1136A03403F
:1008400003D1536C164E1E4056642268136A194039
:1008500008D1116A084005D110460068012188437B
:10086000114608600120002D01D13E2108E0042D31
:1008700001D13F2104E0082D01D1402100E04121B8
:100880006054002070BD00000004004044040000DB
:10089000002C0140004401400048014011110000BB
:1008A000FF7FFFFFF1B582B000206B461870029801
:1008B0003C23C05C012801D10220FEBD0120029B27
:1008C0003C24185508272C4EC5020C00002A06D0DF
:1008D000042A14D0082A24D00C2A32D043E00298EB
:1008E000006800F084F80298006881690F4387610E
:1008F0008169042291438161816922690EE0029835
:10090000006800F0A8F80298006881690D438561CD
:1009100081690E4086618169226912020A438261FF
:1009200023E00298006800F0C7F802980068C169E7
:100930000F43C761C16904229143C161C169226942
:100940000EE00298006800F0E6F802980068C169BD
:100950000D43C561C1690E40C661C16922691202B9
:100960000A43C26101E069460870002002993C22F6
:10097000885468460078FEBDFFFBFFFFF0B50668AF
:10098000784A794B794C7A4DA84201D0A04206D1E1
:100990007027BE4337004E683E43A84208D0A042AD
:1009A00006D0744CA04203D0984201D0904203D1AB
:1009B000714C3440CE6826438024A6434C693443AE
:1009C00004608C68C4620C688462A84203D09842B8
:1009D00001D0904201D1096901630121416102699D
:1009E000114003D00169012291430161F0BDF8B5C6
:1009F000036A026A0124A243026242688469732581
:100A0000AC430D68254300950224A3438C681C4326
:100A1000544B554D564EB04203D0A84201D0984297
:100A20000AD10827BC432700CC683C430427BC43B9
:100A3000B04203D0A84201D0984205D14F4B134099
:100A40004D691D438A692A434260009A8261496860
:100A500041630462F1BD70B5026A036A1024A343C6
:100A6000036243688469464D25400C6824022C4388
:100A70002025AA438D682D0115433D4A904208D197
:100A8000802295432E00CA681501354340229543C4
:100A900005E0354A904202D0324A904206D1394AA6
:100AA0001A404B698E691E43B3001343436084614F
:100AB00049688163056270BD70B5026A036A324C91
:100AC0001C4004624368C5697324A5430C682C4329
:100AD0002E4D15408A6812022A43254DA84207D19F
:100AE0002B4D1540CA6816022E432A4A324005E0B3
:100AF0001D4DA84202D01B4DA84206D1264D1D40D7
:100B00004B698E691E4333012B434360C4614968BE
:100B1000C163026270BD30B5026A036A1F4C1C409B
:100B200004624368C469164D25400C6824022C43B6
:100B30001B4D15408A6812032A430D4DA84205D06B
:100B4000094DA84202D0074DA84204D1154D1D40C1
:100B50004B699B012B434360C46149680164026295
:100B600030BD000000480140004401400004004046
:100B7000002C014000200040FFFCFFFFFFFCFFFFB6
:100B8000FF8CFFFFFFF3FFFFFFFEFFFFFFFDFFFFF7
:100B9000FFF7FFFFFFFBFFFFFFCFFFFFFFEFFFFFB1
:100BA000FFDFFFFFFFBFFFFF10B5C906C90E036AD5
:100BB00001248C40A3430362036A8A401A43026201
:100BC00010BDFEE730B587B01C220021684600F05A
:100BD0006CF8314C314820602F2060600025A56002
:100BE0006420E0602561A5612000FFF78BFD0028EF
:100BF00001D000F0C8F82000FFF7B1FD002801D0B7
:100C000000F0C1F860200090019502950495002243
:100C100069462000FFF746FE002801D000F0B3F837
:100C2000200000F012F807B030BD81B000681B4909
:100C3000884208D1880D1A490A6802430A60096887
:100C400008400090009801B0704710B586B00400CD
:100C50001422002101A800F028F820680F498842DA
:100C600017D1802080020F490A6802430A60096890
:100C7000084000900098102001900220029000206F
:100C8000039004900420059001A99020C00500F075
:100C90007DF806B010BD00001000002000200040CC
:100CA0001C10024014100240704710B504000800E8
:100CB00011000200200000F04DF9200010BDFEE7F9
:100CC00070B500F06FF900F02FF800F07BF9FFF736
:100CD00079FF9026F60501220221300000F020F96C
:100CE0000F4C104D05E00020287000212000FFF778
:100CF00045FDFA20400000F08DF90121300000F0A0
:100D000015F90221300000F011F928780028EAD105
:100D10000120287000212000FFF77AFDE9E700009C
:100D2000100000205800002038B590B0302200217B
:100D300004A8FFF7BAFF102200216846FFF7B5FFAD
:100D40000224049401200790102008900C940025A0
:100D50000D95A02080030E900F9504A8FFF7A8F929
:100D6000002801D072B6FEE707200090019402959A
:100D7000039501216846FFF761FB002801D072B698
:100D8000FEE711B030BD72B6FEE7FEE7FFB5002208
:100D90000F2302932CE0052402E0684DA842FAD10B
:100DA0006D462D78AC403443019D2C60644CA668A0
:100DB000DC4326404D68ED0200D51E43604DAE6019
:100DC000EE6826404F68BF0200D51E43EE606E6895
:100DD00026404F68BF0300D51E436E602E68344026
:100DE0004E68F60302D526001C0034432C60521CCA
:100DF0000B681C00D44000D191E0012494402340B2
:100E0000F5D055000327AF40FE4301964E68B70763
:100E1000BF0F012F03D0B607B60F022E0ED1876881
:100E2000019E3E40CF68AF40374387604668A64387
:100E30004C68E706FF0F97403743476094006E46C3
:100E400074700C79A407A40F032C26D0C468019EEB
:100E500026408C68AC403443C4600C79A407A40FCE
:100E6000022C1AD1D408A4000419266A03966E46EF
:100E700077781C263E406F463E70039EB446029F24
:100E80006E463678B7406646BE43B4460F696E4636
:100E90003678B74066463743276207680324019EC9
:100EA0003E404F682740BC462F006546BD40354355
:100EB00005604D6826042E4099D00125214E3668E4
:100EC0002E43204F3E603E4636682E400196019EDE
:100ED0001D4E9708BF00F6190196019E36680396CD
:100EE0006E4677780C263E406F463E70039EB446B1
:100EF000029F6E463678B7406646BE439027FF0590
:100F0000B84201D100244BE7104FB84201D101246F
:100F100046E70F4DA84200D03FE7022440E7FFBD5F
:100F2000002A01D0816170478162704742690B00DD
:100F300013401B049143194381617047000C004822
:100F4000000401401810024008000140000400485D
:100F5000000800481206130A1A43130C1A4300BF74
:100F6000094205D0830705D00270401C491EF9D103
:100F7000704700001300103906D330B41400150078
:100F800010393CC0FCD230BC490700D30CC000D59E
:100F900004C0890002D30280801C002900D50270A1
:100FA0007047FEE780B50648016810220A430260D8
:100FB0000320FFF70DFB00F041F8002002BD000008
:100FC0000020024010B586B01422002101A8FFF7CE
:100FD0006CFE802080020E490A6802430A6009689C
:100FE0000840009000989024E4050022032120008E
:100FF000FFF796FF0320019001200290002003904C
:10100000049001A92000FFF7C1FE06B010BD00BF8B
:101010001410024038B50500FFF7D4FA0400002090
:10102000C043854202D0044800782D18FFF7CAFA61
:10103000001BA842FAD331BD0000002081B001207E
:1010400009490A6802430A600A6810400090009843
:10105000802040054A6802434A6049680840009081
:10106000009801B0704700BF1810024010B5074942
:1010700079441831064C7C44163404E0081D0A6893
:10108000891888470100A142F8D110BD080000006E
:1010900014000000B7F5FFFFD20000001A000000A6
:1010A0000000002000F00DF8002801D0FFF7DEFF5F
:1010B00000BF00BF002000BF00BFFFF701FE00F02F
:1010C00002F80120704780B500F002F801BDFEE78C
:1010D0000746384600F002F8FBE7FEE780B500BFA0
:1010E00000BF024A11001820ABBEFBE72600020039
:1010F0000548014603B4684680F3098800BF00BF75
:1011000000BF00BFFFF7CEFFA5EDF5FE7047000062
:1011100000000000000000000102030406070809A7
:1011200001488047014800470D110008F1100008F0
:101130000248416802788918416070470000002029
:10114000FEE7FEE77047704780B5FFF7F1FF01BD8E
:10115000FEE7FEE7FEE7FEE7FEE7FEE7FEE7FEE767
:10116000FEE7FEE7FEE7FEE7FEE70001F900000408
:07117000FC0001127AB60039
:04000005080010F1EE
:00000001FF
