:020000040800F2
:1000000018050020311B0008ED1A0008F11A00083D
:1000100000000000000000000000000000000000E0
:10002000000000000000000000000000F51A0008B9
:100030000000000000000000F71A0008F91A00088C
:100040007309000800000000331200081F150008A3
:10005000971A0008A31A0008411B0008431B000858
:1000600000000000451B0008471B0008491B000852
:100070004B1B00084D1B00084F1B00080000000030
:10008000511B00080000000000000000531B000886
:1000900000000000551B0008571B0008591B0008F2
:1000A000000000005B1B0008000000005D1B000852
:1000B000F8B584B00400002C01D101204AE2207878
:1000C000C00766D50C20B4490A680240042A09D04A
:1000D0000A68104008280ED18020400209680140BB
:1000E000814208D1AD480068800352D5606800287D
:1000F0004FD101202EE26068012806D1A74801688F
:10010000802252020A43026024E06068002809D17C
:10011000A2480168A24A0A4002600168A14A0A4056
:10012000026017E0606805280BD19C4801688022B6
:10013000D2020A4302600168802252020A4302602E
:1001400008E096480168964A0A4002600168954AAC
:100150000A400260606800280DD000F0EBFA05004C
:100160008E480068800314D400F0E4FA401B652830
:10017000F6D30320EEE100F0DDFA050087480068C1
:10018000800306D500F0D6FA401B6528F6D303207D
:10019000E0E102262068304000284FD00C207E4944
:1001A0000A680240002A06D00A681040082814D1C4
:1001B0000868C00311D4794801683140002904D08F
:1001C000E168012901D00120C4E10168F8229143CE
:1001D0002269D2000A43026030E0E06800281AD0A9
:1001E0006E4F386801210143396000F0A3FA050021
:1001F00038683040002806D100F09CFA401B0328E4
:10020000F6D30320A6E13868F82188432169C900A4
:100210000143396012E0614F38680121884338603A
:1002200000F088FA050038683040002806D000F059
:1002300081FA401B0328F6D303208BE120780007C6
:1002400028D5E069002812D0C34F38680121014346
:10025000396000F06FFA050038683040002819D185
:1002600000F068FA401B0328F6D3032072E1BA4F6E
:10027000386801218843386000F05CFA050038686E
:100280003040002806D000F055FA401B0328F6D372
:1002900003205FE1042720683840002800D18CE06B
:1002A00000206946087080204005AC49096801407B
:1002B00000290AD1A9490A6802430A60096808406E
:1002C00003900398012069460870A5480068C0059E
:1002D00014D4A3480068802149000143A04801606C
:1002E00000F028FA05009E480068C00506D400F01A
:1002F00021FA401B6528F6D303202BE1A0680128D2
:1003000005D19848016801220A43026021E0A068F3
:10031000002809D1934801680122914301600168D6
:1003200004229143016014E0A068052808D18D489B
:10033000016839430160016801220A43026008E054
:1003400088480168012291430160016804229143B9
:100350000160A06800280FD000F0ECF9050081488A
:100360000068304000281FD100F0E4F9401B7E49AE
:100370008842F4D30320EDE000F0DCF90500794871
:100380000068304000280FD000F0D4F9401B7649B7
:100390008842F4D30320DDE0041002400010024044
:1003A000FFFFFEFFFFFFFBFF68460078012804D136
:1003B0006A4801686D4A0A4002602078C00650D53C
:1003C0006069012822D1B44800680743B248076039
:1003D000B148006801210143AF48016000F0AAF96B
:1003E0000500AD4800683040002806D100F0A2F9B1
:1003F000401B0328F5D30320ACE0A7480168F8228E
:100400009143A269D2000A4302602AE00421C94351
:10041000606988420BD1A048026811400160016800
:10042000F8229143A269D2000A43026019E09A4877
:10043000006807439848076097480068012188438F
:100440009549086000F076F905009348006830404F
:10045000002806D000F06EF9401B0328F5D30320D6
:1004600078E0206A002874D08C4800680C21014094
:1004700008294DD0206A022838D1894F3868894927
:100480000140396000F056F900908026B6043868C3
:100490003040002807D000F04DF90099401A032899
:1004A000F3D3032056E0984801680F229143E26A93
:1004B0000A430260794801687B4A0A40A16A1143F5
:1004C000626A0A4302603868802149040143396046
:1004D00000F030F9050038683040002839D100F0CC
:1004E00029F9401B0328F6D3032033E06C4E306813
:1004F0006C490140316000F01DF905003068800151
:1005000027D500F017F9401B0328F7D3032021E07B
:10051000206A012801D101201CE060480068019098
:100520007948006802900198802149020840616A78
:1005300088420CD102980007000FE16A884206D178
:100540000198F02189030140A06A814201D0012075
:1005500000E0002005B0F0BD241002401C10024055
:10056000007000402010024089130000FFFFFFEFE1
:10057000F3B581B00400002C01D101208BE00125EE
:10058000624E30682840029988420CD230680121BE
:1005900088430299014331603068284002998842BB
:1005A00001D0012077E002202168014000290FD00E
:1005B0002178490705D539490A68E023DB00134350
:1005C0000B6036490A68F0239A43A36813430B6013
:1005D00021682940002932D06168012905D13048BD
:1005E0000068800311D4012055E06168022905D11B
:1005F0002B480068800108D401204CE02849096894
:100600000840002801D1012045E0244F386803212B
:10061000884361680143396000F08CF800903868C5
:100620000C21014060688000814208D000F082F80F
:100630000099401A36498842F1D303202BE00298F2
:100640003168294088420CD23068012188430299E0
:1006500001433160306805400298854201D0012095
:1006600019E02078400706D50C480168294A0A405D
:10067000E1681143016000F019F82749074A126840
:1006800012091207120F895CC84024490860032030
:1006900000F056F80020FEBD341002400410024065
:1006A00000100240FFFFFFFEFFFFC2FFF8B500246D
:1006B000200000942500260019490F680C213940BC
:1006C000042902D0082902D01BE016481AE00F20A6
:1006D0001549BA0C0240895C0E0014490A4A126896
:1006E0001040085C0090F80306D50E48009900F011
:1006F0004FF87043050002E00D48704305002800E4
:1007000000E00848F2BD00002C100240002002402A
:1007100089130000FFF8FFFF201B0008680000207D
:100720000410024000127A00001B0008101B000891
:1007300000093D0001480068704700BF100100201B
:1007400010B50400FA2080000E49097800F020F866
:1007500001000D48006800F01BF800F0F8F80028D0
:1007600001D001200CE0042C09D20022210000203D
:10077000C04300F0E2F805480460002000E00120DA
:1007800010BD00BF6C000020680000206400002045
:100790000022030A8B420BD203098B4219D2430871
:1007A0008B422ED2411A00D2014652411046704768
:1007B000FF2209023FD012068B4205D31212090212
:1007C0008B4201D31212090203098B4219D300E0B4
:1007D000090AC3098B4201D3CB01C01A52418309D4
:1007E0008B4201D38B01C01A524143098B4201D382
:1007F0004B01C01A524103098B4201D30B01C01AAD
:100800005241C3088B4201D3CB00C01A5241830826
:100810008B4201D38B00C01A524143088B4201D353
:100820004B00C01A5241884200D3401A5241CFD2E5
:1008300001461046704708B500F09AF808BD30B57B
:1008400001684118446862088A188368E40704D57F
:100850004C461B1901E0641C09D1914203D00C786D
:1008600064B2491C01E00C3030BD0D78491C1D708C
:100870005B1C002CEFD4641EF7D5EEE7F0B5020048
:1008800052B2002A1CD40322344B040064B2A408E0
:1008900004256C431C59FF251600064008277E439B
:1008A000B540AC438D01EDB202400826724395403D
:1008B0002543020052B29208042462439D5022E074
:1008C0000F24274A032305006DB22540083DAD08DB
:1008D00004267543060076B23440083CA40804267A
:1008E00074431659FF27BC461C00044008277C436C
:1008F0006746A740BE438C01E4B2034008277B4310
:100900009C4034435451F0BD10B50400601E80215A
:100910004904884201D301200EE0601E114908609D
:1009200003210020C043FFF7A9FF00200E49086003
:1009300007200E490860002010BD70B505000C00AE
:1009400016002100280040B2FFF798FF70BD10B5D7
:1009500004002000FFF7D8FF10BD000000E400E015
:100960001CED00E014E000E018E000E010E000E022
:100970007047FEE710B50400002C01D1012026E0ED
:100980003D20205C002805D100203C21605420003F
:1009900000F0EAFA02203D216054211D206800F099
:1009A0006BF90120462160543E2160543F21605480
:1009B00040216054412160544221605443216054DD
:1009C00044216054452160543D216054002010BDF5
:1009D00070B504000D00002D02D13E20205C0BE01C
:1009E000042D02D13F20205C06E0082D02D14020DA
:1009F000205C01E04120205C012801D0012052E070
:100A0000002D04D102203E216054C0B211E0042D1B
:100A100004D102203F216054C0B20AE0082D04D165
:100A2000022040216054C0B203E002204121605402
:100A3000C0B201222900206800F044FA4848216829
:100A4000814207D02168474A914203D02168464A33
:100A5000914201D1012100E00021C9B2002906D054
:100A60002168496C802212020A4321684A64216885
:100A7000814203D020683D4988420DD120688068BA
:100A80004007400F0600062E0CD0206800680121A8
:100A900001432068016005E02068006801210143EE
:100AA00020680160002070BD38B504000D000022F0
:100AB0002900206800F006FA20682949884207D0FA
:100AC00020682849884203D020682749884201D1FC
:100AD000012000E00020C0B2002811D02068006A88
:100AE0002349014000290BD12068006A1B490140BD
:100AF000002905D12068406C1E49014020684164EE
:100B00002068006A1A49014000290BD12068006A58
:100B100012490140002905D120680068012188435D
:100B200021680860002D04D101203E216054C0B22C
:100B300011E0042D04D101203F216054C0B20AE02D
:100B4000082D04D1012040216054C0B203E00120EF
:100B500041216054C0B2002032BD000044040000B6
:100B6000002C0140004401400048014000040040C6
:100B700011110000FF7FFFFFF4B504000E000025F7
:100B80002F003C20205C012801D1022071E00120CF
:100B90003C2160540099002906D004291BD0082963
:100BA00032D00C2947D05FE03100206800F0A1F876
:100BB000206880690821014320688161206880697C
:100BC0000421884321688861206880693169014374
:100BD0002068816149E03100206800F0C2F8206897
:100BE0008069802109010143206881612068806952
:100BF00020490140206881612068806931690902CB
:100C000001432068816130E03100206800F0E0F8A5
:100C10002068C069082101432068C1612068C0695B
:100C2000042188432168C8612068C0693169014393
:100C30002068C16119E03100206800F0FEF82068EA
:100C4000C0698021090101432068C1612068C06931
:100C5000084901402068C1612068C0693169090202
:100C600001432068C16100E007003C2025543800A2
:100C7000C0B2F2BDFFFBFFFF10B50368834A90428C
:100C800002D0834CA04204D17024A3431C004B68C3
:100C9000234390420BD07E4CA04208D07D4CA04212
:100CA00005D07D4CA04202D07C4CA04203D17C4CAC
:100CB0001C40CB6823438024A3434C691C4304603D
:100CC0008B68C3620B688362904205D0724A90427F
:100CD00002D0724A904201D10A6902630122426144
:100CE00003691A40002A03D0026901239A43026172
:100CF00010BD70B5056A026A01239A430262436817
:100D0000846970229443032294430A682243022494
:100D1000A5438C682C435D4DA84205D05E4EB04281
:100D200002D05E4EB04206D10826B4432600CC68FD
:100D300034430426B443A84205D0574DA84202D0FC
:100D4000564DA84207D1574D1D40594B2B404D6978
:100D50001D438B692B43436082614D684563046288
:100D600070BD70B5036A026A1024A2430262426831
:100D700084694D4D25404A4E2E400C682402344370
:100D80002025AB438D682D011D43404B984207D170
:100D90008026B5432E00CD682D0135434026B5434E
:100DA000984205D03C4B984202D03C4B984209D126
:100DB0003E4B13403F4A1A404B699B0013438A69DC
:100DC00092001A43426084614B688363056270BD80
:100DD000F0B5046A026A334B134003624268C56986
:100DE00070239D4303239D430B682B43304D2540C7
:100DF0008C6824022C43254DA84206D12D4E264056
:100E0000CC6827023743294C3C40A84205D0224DEC
:100E1000A84202D0214DA84209D1274D1540274AAA
:100E20002A404D692D0115438A6912012A43426007
:100E3000C3614D68C5630462F0BD70B5036A026AA0
:100E40001D4C144004624268C469174D2540144E7D
:100E50002E400C6824023443184D1D408B681B0340
:100E60002B430A4DA84205D00B4DA84202D00B4D92
:100E7000A84204D1124D15404A6992012A434260AA
:100E8000C4614D680564036270BD0000002C014020
:100E900000040040002000400044014000480140A0
:100EA000FFFCFFFFFFFEFFFFFF8FFFFFFFFBFFFFCA
:100EB000FFFDFFFFFFF7FFFFFFEFFFFFFFDFFFFF7C
:100EC000FFBFFFFF70B41F2301240D001D40AC4085
:100ED000056AA5430562056A0E00334016009E4070
:100EE0002E43066270BC704730B589B008220021DD
:100EF000684600F08BF81C22002102A800F086F85A
:100F00003D4C3E4820602F2060600025A560642095
:100F1000E06025618020A0612000FFF72BFD002804
:100F200001D000F083F9009501956946200000F09A
:100F300081F9002801D000F079F930200290039562
:100F4000049506950C2202A92000FFF715FE002843
:100F500001D000F06BF90C212000FFF739FD2000D3
:100F600000F011F809B030BD80B50168234A914204
:100F700008D10221224A13680B4313601268114002
:100F80000091009901BD10B586B004001422002123
:100F900001A800F03BF820681849884215D180204C
:100FA000C00218490A6802430A60096808400090B4
:100FB00000980220019002900020039004900120EC
:100FC000059001A9104800F067F906B010BD38B5CA
:100FD0000400094D0C212800FFF766FDEC60002C91
:100FE00008D02800FFF7C6FC002803D10C212800F8
:100FF000FFF7EEFC31BD000070000020000400404F
:101000001C100240141002400004004810B50400F7
:10101000080011000200200000F05AFA200010BD64
:1010200000B563480178491C01700178032901DB90
:101030000021017000BD10B55D49097B027F002AC7
:1010400003D0022A34D027D34CE00279002A0FD0F3
:1010500082684369D2188260026983689A421AD210
:1010600082684369D21A82600279D343037112E025
:101070008268C3689A4203D382684369D21A826045
:101080008268C3689A4206D20279D34303718268A8
:101090004369D218826025E0826803699A4202D3CC
:1010A000C268826003E082684369D218826019E0F6
:1010B0000279002A11D0002202713E4A1368446965
:1010C0001B19136003691468A34201D2C36813603B
:1010D000836812689A18826004E00279D34303712E
:1010E0000022826010BD38B505000024002D05D017
:1010F00031482900FFF74CFB400804002000FFF7AF
:1011000066FF31BDF8B500F00BFA00F05DF800F0B5
:1011100017FAFFF7E9FE00F04BFA284C244D284857
:1011200029782022514340182060FFF703FB6860B4
:10113000FA27BF0068682168096879434018A860E9
:10114000FFF7F8FA1F4E2168896940183060FFF7F1
:10115000F1FAA968814217D2FFF762FF184829788F
:1011600020225143401820602068FFF764FF206868
:101170008068FFF7B8FFFFF7DDFA686068682168EC
:10118000096879434018A860FFF7D4FA31688142B2
:10119000DDD22068FFF74FFF20688068FFF7A3FFCC
:1011A000FFF7C8FA2168896940183060CFE700006E
:1011B000F80000200000002040420F000C01002039
:1011C000040000200801002038B590B03022002132
:1011D00004A8FFF71BFF102200216846FFF716FF47
:1011E00012200490012007900990102008900A9086
:1011F00002240C9400250D95A02080030E900F95DD
:1012000004A8FEF755FF002801D000F00FF80720D2
:10121000009001940295039501216846FFF7A8F913
:10122000002801D000F002F811B030BD00B572B650
:10123000FEE7FEE770B502003C20105C012801D1FA
:10124000022024E001203C23D05402233D241355E6
:1012500013685D6813689B687024A5430C682C4371
:1012600015686C6015680A4EB54203D01568094EC2
:10127000B54206D18025AB431D004B682B43156852
:10128000AB603D25505500203C255055002070BDD9
:10129000002C014000040040F1B582B00023086832
:1012A000D840002800D1F3E00124086825009D40C3
:1012B000054001950198002800D1E7E00325486822
:1012C0002840012803D04868284002281ED10298EF
:1012D00086681F00022047432800B8408643CF6835
:1012E000BC46180002277843674687403743029878
:1012F0008760029846682000984086434868000945
:1013000020409840304302000298426048682840DC
:10131000032812D00298C6681F0002204743280005
:10132000B84086438F68BC4618000227784367465A
:10133000874037433A000298C26048682840022834
:1013400021D10298DE0804277E438019076A07200E
:1013500000970F26B4461F000740042677436646D1
:10136000BE40009FB743BC460E691F0038400427AB
:101370007843864067463E4332000298DE080427E1
:101380007E4380190262029806681F0002204743CC
:101390002800B84086434F682F40BC4618000227FB
:1013A00078436746874037433A00029802604868AE
:1013B000C026B6020640002E68D03C480668264388
:1013C00006600068204000900098394E9808042775
:1013D0007843305800900F27BC461F002800384043
:1013E00004277843674687400098B84300900298E6
:1013F0009027FF05B84201D1002410E002982D4A41
:1014000090420CD002982C4A904201D1022406E06E
:1014100002982A4A904201D12C0000E0052400984D
:101420001A00154004225543AC4004439808042296
:1014300050433450224A1068019DA8434D68ED0284
:1014400002D504000198204310601E4C2268019DC3
:10145000AA434D68AD0202D51000019A02432260F2
:10146000194C2068019DA8434D68AD0302D50200C8
:10147000019810432060154C2268019DAA434D68D5
:10148000ED0302D51000019A024322605B1C06E7BF
:10149000F7BD00B51300DBB2002B03D00B009BB2ED
:1014A000836102E00B009BB2836200BD1810024012
:1014B000080001400004004800080048000C0048F3
:1014C000080401400C0401400404014000040140F0
:1014D0001206130A1A43130C1A4300BF094205D01F
:1014E000830705D00270401C491EF9D170470000E7
:1014F0001300103906D330B41400150010393CC065
:10150000FCD230BC490700D30CC000D504C0890010
:1015100002D30280801C002900D502707047FEE7CC
:1015200080B50648016810220A4302600320FFF7D5
:1015300007F900F0A9F8002002BD000000200240D9
:1015400070B586B01422002101A8FFF75FFD80204E
:10155000800216490A6802430A600A681040009037
:1015600000988020C0020A6802430A6009680840A7
:10157000009000989026F60500220C213000FFF71D
:1015800088FF01240194002502950220039001A9FF
:101590003000FFF781FE0C20019002940395049522
:1015A00001A93000FFF778FE06B070BD14100240AC
:1015B0003EB50C2200216846FFF728FD2E4C2F482F
:1015C000206000206060A060E060012525610421AA
:1015D000616101002176010061760100A1760100C0
:1015E000E176FF21C231E161206224216054A562CD
:1015F000200000F063F8002801D0FFF717FE0095E7
:101600008020400101908020400502906946200022
:1016100000F036F9002801D0FFF708FE37BD10B5FD
:1016200086B004001422002101A8FFF7EFFC206817
:10163000124988421ED18020800011490A68024365
:101640000A600968084000900098802080020D49D7
:101650000A6802430A600968084000900098022066
:101660000190032002900020039001A99020C00562
:10167000FFF712FE06B010BDB800002000240140A4
:10168000181002401410024081B0012009490A6874
:1016900002430A60096808400090009880204005D5
:1016A00005490A6802430A600968084000900098EA
:1016B00001B07047181002401C100240F8B5040039
:1016C00000252F002E00002C01D10120D1E0A06BBD
:1016D000002806D1E5632800342160542000FFF77C
:1016E0009EFF1020A16B0140002900D0BAE0390014
:1016F000C9B2002900D0B5E00422216889681140F0
:10170000002900D0AEE0A36B5A49194002230B43D5
:10171000A363216889688907890F01290AD10121FA
:1017200023681B680B40002B03D12368DB681B0474
:1017300000D500E0290000290FD12168C9681823CD
:101740009943A3680B432168CB60216809698B002A
:101750009B0861681943236819612168CB68464971
:1017600019402368D960A16A012902D0802149016A
:1017700000E029002369022B00D02A00237E9B036E
:101780003343667EF6031E43A37E5B033343194354
:10179000E3680B431A432421615C4E001643E17E4B
:1017A00001290FD1A17E002904D1310080267602C3
:1017B0000E4307E0A16B20220A43A263E16B0122E2
:1017C0000A43E263E169FF22C232914203D0E16938
:1017D0003143266A0E432168C96831432268D160CB
:1017E000E16A80225205914214D0E16A012911D0A8
:1017F000E16A02290ED0E16A03290BD0E16A0429CB
:1018000008D0E16A052905D0E16A062902D0E16A1B
:1018100007290ED121684969072291432268516145
:10182000216849692C22A25C5207520F0A432168A1
:101830004A612168C968114A0A40B24207D1E5638A
:10184000A06B0221884301210143A1630FE0A16B3A
:10185000022291430843A0630120E16B0143E1634D
:10186000070004E0A16B0843A063012007003800D3
:10187000C0B2F2BDFFFEFFFF1902FEFFE7FF3F838C
:10188000F8B504000D0000273E00009780214905AF
:10189000E06A884213D0E06A012810D0E06A02288A
:1018A0000DD0E06A03280AD0E06A042807D0E06A75
:1018B000052804D0E06A062801D0E06A0728342011
:1018C000205C012801D1022085E001221000342390
:1018D000E05420688068400774D468683E4B9842A2
:1018E00056D02068806A2B689A4002432068826242
:1018F000E06A884228D0E06A012825D0E06A022800
:1019000022D0E06A03281FD0E06A04281CD0E06AD5
:10191000052819D0E06A062816D0E06A072813D0F7
:101920000720A96822685269024091420CD02168C0
:101930004969072291432268516121684969AA686F
:1019400010400843216848612868102802D02868A0
:1019500011283CD12868102802D18020000401E021
:101960008020C0031D490A681043086028681028B9
:101970002DD11B4800681B49FEF70AFF0A21484386
:1019800000900098002822D00098401E0090F8E7B0
:101990002068806A29688A409043216888622868A4
:1019A000102802D02868112811D12868102802D1E7
:1019B0008021090401E08021C903084802688A43A4
:1019C000026004E0A06B20210143A16316003420D3
:1019D00027543000C0B2F2BD0110000008270140BA
:1019E0006800002040420F0070B40123002413E07F
:1019F0000168001D194202D04D466918491E0C604D
:101A0000091D121F042AFAD20D00960701D50C8079
:101A1000AD1C1A4000D02C700268001D002AE7D1CE
:101A200070BC704710B5074979441831064C7C44A6
:101A3000163404E0081D0A68891888470100A1428D
:101A4000F8D110BD08000000240000009DFFFFFF3A
:101A5000A40000007000002000000000E3EDFFFF84
:101A600002010000BC0000000000002000F00DF8A2
:101A7000002801D0FFF7D6FF00BF00BF002000BF45
:101A800000BFFFF73FFB00F002F80120704780B570
:101A900000F002F801BDFEE70746384600F002F804
:101AA000FBE7FEE780B500BF00BF024A1100182027
:101AB000ABBEFBE7260002000548014603B46846BA
:101AC00080F3098800BF00BF00BF00BFFFF7CEFF53
:101AD000A5EDF5FE03480168034A127889180160F4
:101AE000704700BF100100206C00002000B5FEE729
:101AF00000B5FEE77047704780B5FFF7EBFF01BD0B
:101B000002030405060708090A0B0C0D0E0F10103E
:101B10000102030405060708090A0B0C0D0E0F103D
:101B2000000000000000000001020304060708098D
:101B30000148804701480047611B0008B91A0008A6
:101B4000FEE7FEE7FEE7FEE7FEE7FEE7FEE7FEE76D
:101B5000FEE7FEE7FEE7FEE7FEE7FEE7FEE7000042
:101B6000704704204E00003CF90014204E00002075
:101B70004E000060EA0000D0070000881300000259
:101B8000FD00003CF90014204E0000204E000060D3
:101B9000EA0000D00700008813000001FD00003CAF
:101BA000F90011204E0000204E000060EA0000D035
:101BB0000700008813FA000004FC0003127A0001F9
:0400000508001AB91C
:00000001FF
